{
  "contractName": "Artist",
  "abi": [
    {
      "inputs": [],
      "payable": false,
      "stateMutability": "nonpayable",
      "type": "constructor"
    },
    {
      "constant": false,
      "inputs": [
        {
          "internalType": "uint256",
          "name": "hashIPFS",
          "type": "uint256"
        },
        {
          "internalType": "string",
          "name": "Name",
          "type": "string"
        }
      ],
      "name": "createArtwork",
      "outputs": [
        {
          "internalType": "contract ArtWork",
          "name": "",
          "type": "address"
        }
      ],
      "payable": false,
      "stateMutability": "nonpayable",
      "type": "function"
    },
    {
      "constant": true,
      "inputs": [
        {
          "internalType": "uint256",
          "name": "hashIPFS",
          "type": "uint256"
        }
      ],
      "name": "checkArtwork",
      "outputs": [
        {
          "internalType": "bool",
          "name": "",
          "type": "bool"
        }
      ],
      "payable": false,
      "stateMutability": "view",
      "type": "function"
    }
  ],
  "bytecode": "0x608060405234801561001057600080fd5b5033600160006101000a81548173ffffffffffffffffffffffffffffffffffffffff021916908373ffffffffffffffffffffffffffffffffffffffff16021790555061073e806100616000396000f3fe608060405234801561001057600080fd5b50600436106100365760003560e01c8063227f7adc1461003b5780639a8dea4014610081575b600080fd5b6100676004803603602081101561005157600080fd5b8101908080359060200190929190505050610186565b604051808215151515815260200191505060405180910390f35b6101446004803603604081101561009757600080fd5b8101908080359060200190929190803590602001906401000000008111156100be57600080fd5b8201836020820111156100d057600080fd5b803590602001918460018302840111640100000000831117156100f257600080fd5b91908080601f016020809104026020016040519081016040528093929190818152602001838380828437600081840152601f19601f820116905080830192505050505050509192919290505050610201565b604051808273ffffffffffffffffffffffffffffffffffffffff1673ffffffffffffffffffffffffffffffffffffffff16815260200191505060405180910390f35b60008073ffffffffffffffffffffffffffffffffffffffff1660008084815260200190815260200160002060009054906101000a900473ffffffffffffffffffffffffffffffffffffffff1673ffffffffffffffffffffffffffffffffffffffff1614156101f757600090506101fc565b600190505b919050565b6000808383600160009054906101000a900473ffffffffffffffffffffffffffffffffffffffff1660405161023590610358565b80848152602001806020018373ffffffffffffffffffffffffffffffffffffffff1673ffffffffffffffffffffffffffffffffffffffff168152602001828103825284818151815260200191508051906020019080838360005b838110156102aa57808201518184015260208101905061028f565b50505050905090810190601f1680156102d75780820380516001836020036101000a031916815260200191505b50945050505050604051809103906000f0801580156102fa573d6000803e3d6000fd5b5090508060008086815260200190815260200160002060006101000a81548173ffffffffffffffffffffffffffffffffffffffff021916908373ffffffffffffffffffffffffffffffffffffffff1602179055508091505092915050565b6103a4806103668339019056fe608060405234801561001057600080fd5b506040516103a43803806103a48339818101604052606081101561003357600080fd5b81019080805190602001909291908051604051939291908464010000000082111561005d57600080fd5b8382019150602082018581111561007357600080fd5b825186600182028301116401000000008211171561009057600080fd5b8083526020830192505050908051906020019080838360005b838110156100c45780820151818401526020810190506100a9565b50505050905090810190601f1680156100f15780820380516001836020036101000a031916815260200191505b5060405260200180519060200190929190505050336000806101000a81548173ffffffffffffffffffffffffffffffffffffffff021916908373ffffffffffffffffffffffffffffffffffffffff160217905550816001908051906020019061015b9291906101ac565b508260028190555080600360006101000a81548173ffffffffffffffffffffffffffffffffffffffff021916908373ffffffffffffffffffffffffffffffffffffffff160217905550505050610251565b828054600181600116156101000203166002900490600052602060002090601f016020900481019282601f106101ed57805160ff191683800117855561021b565b8280016001018555821561021b579182015b8281111561021a5782518255916020019190600101906101ff565b5b509050610228919061022c565b5090565b61024e91905b8082111561024a576000816000905550600101610232565b5090565b90565b610144806102606000396000f3fe608060405234801561001057600080fd5b506004361061002b5760003560e01c806313af403514610030575b600080fd5b6100726004803603602081101561004657600080fd5b81019080803573ffffffffffffffffffffffffffffffffffffffff169060200190929190505050610074565b005b3373ffffffffffffffffffffffffffffffffffffffff16600360009054906101000a900473ffffffffffffffffffffffffffffffffffffffff1673ffffffffffffffffffffffffffffffffffffffff16141561010c5780600360006101000a81548173ffffffffffffffffffffffffffffffffffffffff021916908373ffffffffffffffffffffffffffffffffffffffff1602179055505b5056fea265627a7a7231582042e000343b69d3be5dde3a90973cbb8a5ccfbaa589177a739b9549f8f2f81fb264736f6c63430005100032a265627a7a72315820334c7ddff5bed023849fa9caf5525b824fcd1ac8ffcedfb0357c19972d155be064736f6c63430005100032",
  "source": "pragma solidity ^0.5.16;\ncontract Artist {\n    // Collection of artworks by this Artist\n    mapping(uint256 => ArtWork) artworks;\n    address artist;\n\n    constructor() public {\n        artist = msg.sender;\n    }\n\n    function createArtwork(uint256 hashIPFS, string memory Name)\n        public\n        returns (ArtWork)\n    {\n        ArtWork artContract = new ArtWork(hashIPFS, Name, artist);\n        artworks[hashIPFS] = artContract;\n        return artContract;\n    }\n\n    function checkArtwork(uint256 hashIPFS) public view returns (bool) {\n        if (artworks[hashIPFS] == ArtWork(0x0)) {\n            return false;\n        }\n        return true;\n    }\n}\n\ncontract ArtWork {\n    // Detail of artwork\n    address artist;\n    string name;\n    uint256 hashIPFS;\n    address owner;\n\n    constructor(uint256 ipfsHash, string memory artName, address originalOwner)\n        public\n    {\n        artist = msg.sender;\n        name = artName;\n        hashIPFS = ipfsHash;\n        owner = originalOwner;\n    }\n\n    function setOwner(address newOwner) public {\n        if (owner == msg.sender) {\n            owner = newOwner;\n        }\n    }\n}\n",
  "sourcePath": "/Users/shilpakaushik/Desktop/Design Patterns Blckchn/Artist Token/contracts/ArtistToke.sol",
  "compiler": {
    "name": "solc",
    "version": "0.5.16+commit.9c3226ce.Emscripten.clang"
  },
  "schemaVersion": "3.0.23",
  "updatedAt": "2020-02-09T04:23:38.445Z",
  "devdoc": {
    "methods": {}
  },
  "userdoc": {
    "methods": {}
  }
}